:0300000002000EED
:0C000E00787FE4F6D8FD75810D020055E6
:100191003F065B4F666D7D077F6F777C395E7971B6
:0901A100010C0A010D0001090026
:10016B00EF1FAA0670011E4A600B7D32EDD394007F
:05017B0040EE1D80F7BD
:01018000225C
:03000300020006F2
:03000600B28C3287
:10018100758901758C3C758AB0D2AFD2A9D28C2207
:03000B0002009A56
:10009A00C0E0C0D075D000C007758C3C758AB00529
:1000AA0008E5086414705FF508D50C11E50D5403D2
:1000BA00FF6003BF0207750C05050D800EE50C7085
:1000CA000AE50D30E005750C0A050DE50D5403141B
:1000DA00601614601B1460242403702AD2A6C2A7D7
:1000EA00C2A0D2A1D2A5801ED2A6D2A7C2A0801237
:1000FA00C2A6D2A7D2A0C2A1D2A5800AC2A6D2A75E
:0D010A00D2A0D2A1B2A5D007D0D0D0E03253
:10011700120181E4F580E50C75F00A84F50AE50C17
:1001270075F00A8485F00BE50914600E14600F144E
:10013700601624037020D2A48006D2A4800CC2A427
:10014700C2A3D2A2E50A8008C2A4C2A3C2A2E50B39
:1001570090019193F5800509E509D3940340B4E430
:04016700F50980AF67
:10001A00020117E493A3F8E493A34003F68001F2E4
:10002A0008DFF48029E493A3F85407240CC8C333E7
:10003A00C4540F4420C8834004F456800146F6DFB6
:10004A00E4800B01020408102040809001A1E47EA4
:10005A00019360BCA3FF543F30E509541FFEE493AB
:10006A00A360010ECF54C025E060A840B8E493A372
:10007A00FAE493A3F8E493A3C8C582C8CAC583CA9D
:10008A00F0A3C8C582C8CAC583CADFE9DEE780BE55
:0101AA000054
:00000001FF
