:0300000002010DED
:0C010D00787FE4F6D8FD75810D0200CA71
:1000CA00750800750900750A25750B00750C007511
:1000DA000D30AB08AA09A90A740612005AAB08AA7D
:1000EA0009A90A120041FBFD3395E0FCAF05FE1297
:1000FA00006CAC06AD07EC120008AB0BAA0CA90DFC
:03010A0002008C64
:1000030075F020800E75F010800575F0087D007E78
:10001300007F003392D530D50312007EEC334010BD
:10002300EF33FFEE33FEED33FDEC33FCD5F0ED2281
:0E003300E5F0247EA2D513CC92E7CDCEFF22BD
:10004100BB010689828A83E0225002E722BBFE02BD
:09005100E32289828A83E49322F0
:10005A00BB010689828A83F0225002F722BBFE0185
:02006A00F3227F
:10006C00EF8DF0A4A8F0CF8CF0A428CE8DF0A42EA8
:02007C00FE2262
:0E007E00C3E49FFFE49EFEE49DFDE49CFC2293
:10008C00BB010789828A830200B25005E9F802009D
:0A009C00A6BBFE05E9F80200BE2233
:0C00A600ECF608EDF608EEF608EFF62286
:0C00B200ECF0A3EDF0A3EEF0A3EFF022C1
:0C00BE00ECF208EDF208EEF208EFF2227E
:00000001FF
