:030000000202C831
:0C02C800787FE4F6D8FD7581240201EA7D
:100274004335315F5258443A004335315F54584452
:0B0284003A0020202020202020200035
:1002590053877F75985053890F438920758BFD7596
:0B0269008DFDC2ABD28ED2AFD2AC2212
:0802E8008F993099FDC29922A3
:1001EA001202591202A57BFF7A0279747D017F01FE
:1001FA001202197BFF7A02797D7D017F02120219B0
:0F020A007BFF7A0279867D0A7F0212021980D764
:030023000200BA1E
:1000BA00C0E0C0F0C083C082C0D075D000C000C00C
:1000CA0001C002C003C004C005C006C007309817AB
:1000DA00AB997D097F011202DEE5992411FB7D09A6
:1000EA007F021202DEC298D007D006D005D004D013
:1000FA0003D002D001D000D0D0D082D083D0F0D0AB
:02010A00E032E1
:0602B900C2A58F80D2A750
:0802BF007F027EEFDEFEDFFC92
:0102C7002214
:0A02D400C2A61202B9C2A70202BFBF
:10000300CFCDCFCECCCE1200657C007D0A12006529
:04001300ED2430FFA9
:0A001700D2A61202B9C2A70202BF6E
:10028F00AE07BE0104ED148006BE0209ED243F4403
:06029F0080FF1202D422D0
:1002A5007F381202D47F0C1202D47F061202D47F4B
:0402B500010202D46C
:0A02DE00AC0312028FAF04020017F8
:060219008B228A238924D8
:10021F0012028FE4FDAB22AA23A9248D82758300DD
:0C022F00120026FF60061200170D80E987
:01023B0022A0
:0C01B7007F0AEA24FFFDE434FFFC7E0018
:0801C3008E1E8F1F8C208D2180
:1001CB007F017E00E4FBEBC39521E5206480F8748E
:0E01DB008098500AAC1EAD1F1200530B80E836
:0101E90022F3
:04023C008A118B1286
:1002400012028FAA13EAD39400400D1201B7AC1129
:08025000AD121200031A80ED4B
:010258002283
:10010C0012028FC3EA64809480400B7F2B1200177D
:10011C008A0D8B0E800E7F2D120017C3E49BF50EFB
:10012C00E49AF50DAA0CEAD39400400D1201B7AC79
:09013C000DAD0E1200031A80ED56
:010145002297
:040146008A168B1773
:10014A0012028FAA18EAD3940040297F101201B92B
:10015A00AC16AD17CFCDCFCECCCE120065EF540F73
:10016A00FEC3940AEE5004243080022437FF1200A2
:04017A00171A80D1FF
:01017E00225E
:04017F008A1B8B1C30
:1001830012028FAA1DEAD394004028EA24FFFDE45B
:1001930034FFFC7F027E001201C3AC1BAD1CCFCD2C
:1001A300CFCECCCE120065EF54012430FF120017DE
:0301B3001A80D2DD
:0101B6002226
:10002600BB010CE58229F582E5833AF583E022508F
:1000360006E92582F8E622BBFE06E92582F8E222D9
:0D004600E58229F582E5833AF583E49322F3
:10005300EF8DF0A4A8F0CF8CF0A428CE8DF0A42EC1
:02006300FE227B
:10006500BC000BBE0029EF8DF084FFADF022E4CC7F
:10007500F875F008EF2FFFEE33FEEC33FCEE9DEC48
:10008500984005FCEE9DFE0FD5F0E9E4CEFD22ED8E
:10009500F8F5F0EE8420D21CFEADF075F008EF2FD8
:1000A500FFED33FD4007985006D5F0F222C398FDC9
:0500B5000FD5F0EA2266
:00000001FF
