:0300000002000EED
:0C000E00787FE4F6D8FD75810D020055E6
:0A01AD00C0F9A4B0999282F8809086
:0901A300010C0A010D0001090024
:10017D00EF1FAA0670011E4A600B7D32EDD394006D
:05018D0040EE1D80F7AB
:01019200224A
:03000300020006F2
:03000600B28C3287
:100164002090157FE87E0312017DB28CC283D28475
:09017400D285C280D281D2822220
:10019300758901758C3C758AB0D2AFD2A9D28C22F5
:03000B0002009A56
:10009A00C0E0C0D075D000C007758C3C758AB00529
:1000AA0008E50864147068F508D50C11E50D5403C9
:1000BA00FF6003BF0207750C05050D800EE50C7085
:1000CA000AE50D30E005750C0A050DE50D5403141B
:1000DA00601214601D14602824037033D283D28402
:1000EA00C2858006D283B284D285C280D281D2826E
:1000FA00801DC283D284D285D280D281C282800FEF
:10010A00C283D284D285D280A284B39281D282D091
:06011A0007D0D0D0E03256
:1001200012019312016475B0FFE50C75F00A84F5B5
:100130000AE50C75F00A8485F00BE50914600B04E0
:100140007014C2A0D2A1E50B8006D2A0C2A1E50A1C
:100150009001AD93F5B00509E509D3940140C4E4DD
:04016000F50980BF5E
:10001A00020120E493A3F8E493A34003F68001F2DB
:10002A0008DFF48029E493A3F85407240CC8C333E7
:10003A00C4540F4420C8834004F456800146F6DFB6
:10004A00E4800B01020408102040809001A3E47EA2
:10005A00019360BCA3FF543F30E509541FFEE493AB
:10006A00A360010ECF54C025E060A840B8E493A372
:10007A00FAE493A3F8E493A3C8C582C8CAC583CA9D
:10008A00F0A3C8C582C8CAC583CADFE9DEE780BE55
:0101AC000052
:00000001FF
