:03000000020157A3
:0C015700787FE4F6D8FD7581120200B438
:1000B400750D00750E00750F207510007511007513
:1000C40012217B007A007930748275F00812009551
:1000D40012006AF50985F008750A27750B10AC0A39
:1000E400AD0BAE08AF09120015EF4E7010AE0AAF9B
:1000F4000BFC7D0A1200158E0A8F0B80E1E4F50CCF
:10010400E50945086042AC0AAD0BAE08AF09120020
:1001140015AB10AA11A912EF120003AE08AF09AC77
:100124000AAD0B1200158C088D0974012512F51205
:10013400E43511F511AE0AAF0B7C007D0A120015EF
:100144008E0A8F0B050C80B8AB0DAA0EA90FE50C17
:03015400020003A3
:10000300BB010689828A83F0225002F722BBFE01DC
:02001300F322D6
:10001500BC000BBE0029EF8DF084FFADF022E4CCCF
:10002500F875F008EF2FFFEE33FEEC33FCEE9DEC98
:10003500984005FCEE9DFE0FD5F0E9E4CEFD22EDDE
:10004500F8F5F0EE8420D21CFEADF075F008EF2F28
:10005500FFED33FD4007985006D5F0F222C398FD19
:050065000FD5F0EA22B6
:10006A00BB010A89828A83E0F5F0A3E02250068761
:10007A00F009E71922BBFE07E3F5F009E319228923
:0B008A00828A83E493F5F07401932256
:10009500BB010A89828A83F0E5F0A3F0225006F7B6
:0F00A50009A7F01922BBFE06F3E5F009F31922B3
:00000001FF
