:0300000002009B60
:0C009B00787FE4F6D8FD75810D020003AB
:10000300750800750900750A20750B00750C0075DD
:100013000D21AB08AA09A90A74FF120089AB08AA2B
:1000230009A90A120070FFD364809480400AAB0BC5
:10003300AA0CA90DEF120089AB08AA09A90A12009C
:1000430070700BAB0BAA0CA90D7420120089AB08BE
:10005300AA09A90A120070FFC36480948050BEEFFE
:0D0063002405AB0BAA0CA90D12008980B07A
:10007000BB010689828A83E0225002E722BBFE028E
:09008000E32289828A83E49322C1
:10008900BB010689828A83F0225002F722BBFE0156
:02009900F32250
:00000001FF
